{
  "contractName": "File",
  "abi": [
    {
      "anonymous": false,
      "inputs": [
        {
          "indexed": false,
          "internalType": "address",
          "name": "doctor",
          "type": "address"
        }
      ],
      "name": "AccessGranted",
      "type": "event"
    },
    {
      "anonymous": false,
      "inputs": [
        {
          "indexed": false,
          "internalType": "address",
          "name": "doctor",
          "type": "address"
        }
      ],
      "name": "AccessRevoked",
      "type": "event"
    },
    {
      "inputs": [
        {
          "internalType": "address",
          "name": "",
          "type": "address"
        }
      ],
      "name": "accessPermissions",
      "outputs": [
        {
          "internalType": "bool",
          "name": "",
          "type": "bool"
        }
      ],
      "stateMutability": "view",
      "type": "function",
      "constant": true
    },
    {
      "inputs": [
        {
          "internalType": "address",
          "name": "",
          "type": "address"
        }
      ],
      "name": "doctors",
      "outputs": [
        {
          "internalType": "string",
          "name": "name",
          "type": "string"
        },
        {
          "internalType": "string",
          "name": "ipfsCID",
          "type": "string"
        }
      ],
      "stateMutability": "view",
      "type": "function",
      "constant": true
    },
    {
      "inputs": [],
      "name": "filehash",
      "outputs": [
        {
          "internalType": "string",
          "name": "",
          "type": "string"
        }
      ],
      "stateMutability": "view",
      "type": "function",
      "constant": true
    },
    {
      "inputs": [
        {
          "internalType": "string",
          "name": "_filehash",
          "type": "string"
        }
      ],
      "name": "set",
      "outputs": [],
      "stateMutability": "nonpayable",
      "type": "function"
    },
    {
      "inputs": [],
      "name": "get",
      "outputs": [
        {
          "internalType": "string",
          "name": "",
          "type": "string"
        }
      ],
      "stateMutability": "view",
      "type": "function",
      "constant": true
    },
    {
      "inputs": [
        {
          "internalType": "address",
          "name": "doctor",
          "type": "address"
        }
      ],
      "name": "grantAccess",
      "outputs": [],
      "stateMutability": "nonpayable",
      "type": "function"
    },
    {
      "inputs": [
        {
          "internalType": "address",
          "name": "doctor",
          "type": "address"
        }
      ],
      "name": "revokeAccess",
      "outputs": [],
      "stateMutability": "nonpayable",
      "type": "function"
    },
    {
      "inputs": [
        {
          "internalType": "address",
          "name": "doctorAddress",
          "type": "address"
        }
      ],
      "name": "doctorExists",
      "outputs": [
        {
          "internalType": "bool",
          "name": "",
          "type": "bool"
        }
      ],
      "stateMutability": "view",
      "type": "function",
      "constant": true
    },
    {
      "inputs": [
        {
          "internalType": "string",
          "name": "name",
          "type": "string"
        },
        {
          "internalType": "string",
          "name": "ipfsCID",
          "type": "string"
        }
      ],
      "name": "addDoctor",
      "outputs": [],
      "stateMutability": "nonpayable",
      "type": "function"
    },
    {
      "inputs": [
        {
          "internalType": "address",
          "name": "doctor",
          "type": "address"
        }
      ],
      "name": "hasAccess",
      "outputs": [
        {
          "internalType": "bool",
          "name": "",
          "type": "bool"
        }
      ],
      "stateMutability": "view",
      "type": "function",
      "constant": true
    },
    {
      "inputs": [],
      "name": "helloWorld",
      "outputs": [
        {
          "internalType": "string",
          "name": "",
          "type": "string"
        }
      ],
      "stateMutability": "pure",
      "type": "function",
      "constant": true
    }
  ],
  "bytecode": "0x608060405234801561000f575f80fd5b50610ea28061001d5f395ff3fe608060405234801561000f575f80fd5b50600436106100a7575f3560e01c806385e685311161006f57806385e685311461014f57806395a078e81461016b578063a9583c221461019b578063c605f76c146101cc578063dc093978146101ea578063fc30c16e14610206576100a7565b80630ae5e739146100ab5780632ad230a9146100c75780634ed3885e146100f75780636bb1605b146101135780636d4ce63c14610131575b5f80fd5b6100c560048036038101906100c091906107e4565b610236565b005b6100e160048036038101906100dc91906107e4565b6102c4565b6040516100ee9190610829565b60405180910390f35b610111600480360381019061010c919061097e565b61031b565b005b61011b61032d565b6040516101289190610a3f565b60405180910390f35b6101396103b8565b6040516101469190610a3f565b60405180910390f35b610169600480360381019061016491906107e4565b610447565b005b610185600480360381019061018091906107e4565b6104d5565b6040516101929190610829565b60405180910390f35b6101b560048036038101906101b091906107e4565b610527565b6040516101c3929190610a5f565b60405180910390f35b6101d4610653565b6040516101e19190610a3f565b60405180910390f35b61020460048036038101906101ff9190610a94565b610690565b005b610220600480360381019061021b91906107e4565b61075c565b60405161022d9190610829565b60405180910390f35b6001805f8373ffffffffffffffffffffffffffffffffffffffff1673ffffffffffffffffffffffffffffffffffffffff1681526020019081526020015f205f6101000a81548160ff0219169083151502179055507fdeb5c31899474fe8c086c95ff9344480d19365676a6a1d22d37bb8e3e7c0ef18816040516102b99190610b19565b60405180910390a150565b5f8060025f8473ffffffffffffffffffffffffffffffffffffffff1673ffffffffffffffffffffffffffffffffffffffff1681526020019081526020015f205f01805461031090610b5f565b905014159050919050565b805f90816103299190610d35565b5050565b5f805461033990610b5f565b80601f016020809104026020016040519081016040528092919081815260200182805461036590610b5f565b80156103b05780601f10610387576101008083540402835291602001916103b0565b820191905f5260205f20905b81548152906001019060200180831161039357829003601f168201915b505050505081565b60605f80546103c690610b5f565b80601f01602080910402602001604051908101604052809291908181526020018280546103f290610b5f565b801561043d5780601f106104145761010080835404028352916020019161043d565b820191905f5260205f20905b81548152906001019060200180831161042057829003601f168201915b5050505050905090565b5f60015f8373ffffffffffffffffffffffffffffffffffffffff1673ffffffffffffffffffffffffffffffffffffffff1681526020019081526020015f205f6101000a81548160ff0219169083151502179055507f1b9b72fde9da721e70e6aca3b0cf4cbe73e82765ef1f280157740376531bfdd8816040516104ca9190610b19565b60405180910390a150565b5f60015f8373ffffffffffffffffffffffffffffffffffffffff1673ffffffffffffffffffffffffffffffffffffffff1681526020019081526020015f205f9054906101000a900460ff169050919050565b6002602052805f5260405f205f91509050805f01805461054690610b5f565b80601f016020809104026020016040519081016040528092919081815260200182805461057290610b5f565b80156105bd5780601f10610594576101008083540402835291602001916105bd565b820191905f5260205f20905b8154815290600101906020018083116105a057829003601f168201915b5050505050908060010180546105d290610b5f565b80601f01602080910402602001604051908101604052809291908181526020018280546105fe90610b5f565b80156106495780601f1061062057610100808354040283529160200191610649565b820191905f5260205f20905b81548152906001019060200180831161062c57829003601f168201915b5050505050905082565b60606040518060400160405280600d81526020017f48656c6c6f2c20576f726c642100000000000000000000000000000000000000815250905090565b610699336102c4565b156106d9576040517f08c379a00000000000000000000000000000000000000000000000000000000081526004016106d090610e4e565b60405180910390fd5b60405180604001604052808381526020018281525060025f3373ffffffffffffffffffffffffffffffffffffffff1673ffffffffffffffffffffffffffffffffffffffff1681526020019081526020015f205f820151815f01908161073e9190610d35565b5060208201518160010190816107549190610d35565b509050505050565b6001602052805f5260405f205f915054906101000a900460ff1681565b5f604051905090565b5f80fd5b5f80fd5b5f73ffffffffffffffffffffffffffffffffffffffff82169050919050565b5f6107b38261078a565b9050919050565b6107c3816107a9565b81146107cd575f80fd5b50565b5f813590506107de816107ba565b92915050565b5f602082840312156107f9576107f8610782565b5b5f610806848285016107d0565b91505092915050565b5f8115159050919050565b6108238161080f565b82525050565b5f60208201905061083c5f83018461081a565b92915050565b5f80fd5b5f80fd5b5f601f19601f8301169050919050565b7f4e487b71000000000000000000000000000000000000000000000000000000005f52604160045260245ffd5b6108908261084a565b810181811067ffffffffffffffff821117156108af576108ae61085a565b5b80604052505050565b5f6108c1610779565b90506108cd8282610887565b919050565b5f67ffffffffffffffff8211156108ec576108eb61085a565b5b6108f58261084a565b9050602081019050919050565b828183375f83830152505050565b5f61092261091d846108d2565b6108b8565b90508281526020810184848401111561093e5761093d610846565b5b610949848285610902565b509392505050565b5f82601f83011261096557610964610842565b5b8135610975848260208601610910565b91505092915050565b5f6020828403121561099357610992610782565b5b5f82013567ffffffffffffffff8111156109b0576109af610786565b5b6109bc84828501610951565b91505092915050565b5f81519050919050565b5f82825260208201905092915050565b5f5b838110156109fc5780820151818401526020810190506109e1565b5f8484015250505050565b5f610a11826109c5565b610a1b81856109cf565b9350610a2b8185602086016109df565b610a348161084a565b840191505092915050565b5f6020820190508181035f830152610a578184610a07565b905092915050565b5f6040820190508181035f830152610a778185610a07565b90508181036020830152610a8b8184610a07565b90509392505050565b5f8060408385031215610aaa57610aa9610782565b5b5f83013567ffffffffffffffff811115610ac757610ac6610786565b5b610ad385828601610951565b925050602083013567ffffffffffffffff811115610af457610af3610786565b5b610b0085828601610951565b9150509250929050565b610b13816107a9565b82525050565b5f602082019050610b2c5f830184610b0a565b92915050565b7f4e487b71000000000000000000000000000000000000000000000000000000005f52602260045260245ffd5b5f6002820490506001821680610b7657607f821691505b602082108103610b8957610b88610b32565b5b50919050565b5f819050815f5260205f209050919050565b5f6020601f8301049050919050565b5f82821b905092915050565b5f60088302610beb7fffffffffffffffffffffffffffffffffffffffffffffffffffffffffffffffff82610bb0565b610bf58683610bb0565b95508019841693508086168417925050509392505050565b5f819050919050565b5f819050919050565b5f610c39610c34610c2f84610c0d565b610c16565b610c0d565b9050919050565b5f819050919050565b610c5283610c1f565b610c66610c5e82610c40565b848454610bbc565b825550505050565b5f90565b610c7a610c6e565b610c85818484610c49565b505050565b5b81811015610ca857610c9d5f82610c72565b600181019050610c8b565b5050565b601f821115610ced57610cbe81610b8f565b610cc784610ba1565b81016020851015610cd6578190505b610cea610ce285610ba1565b830182610c8a565b50505b505050565b5f82821c905092915050565b5f610d0d5f1984600802610cf2565b1980831691505092915050565b5f610d258383610cfe565b9150826002028217905092915050565b610d3e826109c5565b67ffffffffffffffff811115610d5757610d5661085a565b5b610d618254610b5f565b610d6c828285610cac565b5f60209050601f831160018114610d9d575f8415610d8b578287015190505b610d958582610d1a565b865550610dfc565b601f198416610dab86610b8f565b5f5b82811015610dd257848901518255600182019150602085019450602081019050610dad565b86831015610def5784890151610deb601f891682610cfe565b8355505b6001600288020188555050505b505050505050565b7f446f63746f7220616c72656164792065786973747300000000000000000000005f82015250565b5f610e386015836109cf565b9150610e4382610e04565b602082019050919050565b5f6020820190508181035f830152610e6581610e2c565b905091905056fea264697066735822122014e440a42eb425b59e03703eebe9fdf9a35943cd261ebea865f7c26015924a8664736f6c63430008140033",
  "immutableReferences": {},
  "source": "\r\n// SPDX-License-Identifier: GPL-3.0\r\npragma solidity 0.8.20;\r\n\r\ncontract File {\r\n    struct Doctor {\r\n        string name;\r\n        string ipfsCID;\r\n    }\r\n\r\n    string public filehash;\r\n    mapping(address => bool) public accessPermissions;\r\n    mapping(address => Doctor) public doctors;\r\n\r\n    event AccessGranted(address doctor);\r\n    event AccessRevoked(address doctor);\r\n    \r\n    function set(string memory _filehash) public {\r\n        filehash = _filehash;\r\n    }\r\n    \r\n    function get() public view returns (string memory) {\r\n        return filehash;\r\n    }\r\n    \r\n    function grantAccess(address doctor) public {\r\n        accessPermissions[doctor] = true;\r\n        emit AccessGranted(doctor);\r\n    }\r\n\r\n    function revokeAccess(address doctor) public {\r\n        accessPermissions[doctor] = false;\r\n        emit AccessRevoked(doctor);\r\n    }\r\n    \r\n    function doctorExists(address doctorAddress) public view returns (bool) {\r\n        return bytes(doctors[doctorAddress].name).length != 0;\r\n    }\r\n\r\n    function addDoctor(string memory name, string memory ipfsCID) public {\r\n        require(!doctorExists(msg.sender), \"Doctor already exists\");\r\n        doctors[msg.sender] = Doctor(name, ipfsCID);\r\n    }\r\n    \r\n    function hasAccess(address doctor) public view returns (bool) {\r\n        return accessPermissions[doctor];\r\n    }\r\n\r\n    function helloWorld() public pure returns (string memory) {\r\n        return \"Hello, World!\";\r\n    }\r\n}\r\n",
  "sourcePath": "C:\\Users\\asus\\Desktop\\Frontend_proj\\new_ehr\\contracts\\file.sol",
  "compiler": {
    "name": "solc",
    "version": "0.8.20+commit.a1b79de6.Emscripten.clang"
  },
  "schemaVersion": "3.4.14",
  "updatedAt": "2023-05-31T19:32:24.191Z",
  "networkType": "ethereum",
  "devdoc": {
    "kind": "dev",
    "methods": {},
    "version": 1
  },
  "userdoc": {
    "kind": "user",
    "methods": {},
    "version": 1
  }
}